:020000042000DA
:100000006F0000136F00C01200000000000000002D
:10001000B74200409382024003A302001373030817
:10002000E30C03FE8280511122C006C226C4930451
:1000300005003744004013040440D93F03C30400C3
:1000400085046305030023026400C5BF0244924097
:10005000A24431018280611106C22AC0553F034388
:100060000100B74200409382024023826200924026
:1000700021018280511122C006C226C493040500CA
:10008000170500001305D516793F7144B3D38400DA
:10009000711493F3F300170500001305A5151E95C1
:1000A000034505004D3FE35304FE02449240A24441
:1000B00031018280511122C006C226C413040500FA
:1000C000938405001705000013053511A93F13059A
:1000D00004004D371705000013051511A937130546
:1000E0000400938504002E957D15693717050000DF
:1000F0001305E50F0D3FA29408401104A53F130519
:100100000002913FE31A94FE170500001305950FB6
:10011000193F02449240A24431018280711106C00D
:10012000170500001305050AFD3D8240110182807C
:1001300017810000130101EDB712024037030200DE
:1001400083A3C2013363730023AE6200114383A310
:1001500082013363730023AC6200B71201409382C3
:10016000028037F3FFFF1303F30F83A30200371E50
:100170000000130E0EA0337373003363C30123A07A
:100180006200B74200409382024013035004B72339
:1001900000009383C30023A4620023A67200BD3F26
:1001A000170500E8130505E6970501E0938585E549
:1001B00011373705002013050580C145E53D01A035
:1001C000466C6173682044756D7020417373697368
:1001D00074616E740D0A0044756D70696E672066F7
:1001E000726F6D200020746F20000D0A00307800BF
:1001F000303132333435363738394142434445465D
:0C020000000D0A646F6E65210D0A0000FD
:0400000520000000D7
:00000001FF
